:020000040800F2
:10000000D818002029020008790E0008B50500085C
:10001000750E0008C1040008391000080000000037
:10002000000000000000000000000000810E000839
:10003000B1050008000000007D0E0008850E0008D4
:10004000430200084302000843020008430200087C
:10005000430200084302000843020008430200086C
:10006000430200084302000843020008430200085C
:10007000430200084302000843020008430200084C
:10008000C5040008110500084302000843020008E7
:10009000430200084302000843020008430200082C
:1000A000430200084302000843020008430200081C
:1000B000430200084302000843020008430200080C
:1000C00043020008430200084302000843020008FC
:1000D00043020008C90F000801100008430200088D
:1000E00043020008430200084302000843020008DC
:1000F00043020008430200084302000843020008CC
:1001000043020008430200084302000843020008BB
:1001100043020008430200084302000843020008AB
:1001200043020008430200083D050008430200089E
:10013000430200084302000843020008430200088B
:10014000430200084302000843020008430200087B
:100150004302000843020008850500084302000826
:10016000430200084302000843020008430200085B
:100170004302000843020008430200080000000098
:10018000430200084302000800F002F800F03CF8C7
:100190000AA090E8000C82448344AAF10107DA45E2
:1001A00001D100F031F8AFF2090EBAE80F0013F0F8
:1001B000010F18BFFB1A43F0010318476C1A000027
:1001C0008C1A0000103A24BF78C878C1FAD85207B8
:1001D00024BF30C830C144BF04680C6070470000C1
:1001E0000023002400250026103A28BF78C1FBD840
:1001F000520728BF30C148BF0B6070471FB501F0E0
:10020000A1FC1FBD10B510BD00F025F91146FFF788
:10021000F5FF01F01DFB00F043F903B4FFF7F2FF17
:1002200003BC00F047F9000009488047094800472F
:10023000FEE7FEE7FEE7FEE7FEE7FEE7FEE7FEE796
:10024000FEE7FEE704480549054A064B70470000F3
:10025000B50F000889010008D8120020D818002026
:10026000D8140020D814002053EA020C00F0698052
:100270002DE9F04B4FF00006002B1FBFB3FA83F5BA
:1002800003FA05F424FA05F65E4012BF1643B2FAEB
:1002900082F502FA05F4C5F120051EBF22FA05FC1D
:1002A00044EA0C04203556EA044C4FEA144418BFC3
:1002B000641C4FF000084FF00009904271EB030CF2
:1002C00039D3002919BFB1FA81F701FA07F6B0FA5C
:1002D00080F700FA07F6C7F120071EBF20FA07FCD7
:1002E00046EA0C062037B6FBF4FCA7EB0507103FE7
:1002F00007F01F0BCBF120062CFA06F60CFA0BFBCD
:1003000044BFB3460026202FA4BF5E464FF0000B2B
:100310005BEA060C08BF4FF0010B19EB0B0948EB29
:100320000608ABFB027C06FB02CC0BFB03CCC01B1C
:1003300071EB0C01C1E70B46024641464846BDE859
:10034000F08B13B5084318BF4FF0FF300146AFF3F1
:100350000080BDE81C407047032A40F2308010F056
:10036000030C00F0158011F8013BBCF1020F624450
:1003700098BF11F801CB00F8013B38BF11F8013BE1
:10038000A2F1040298BF00F801CB38BF00F8013B8E
:1003900011F0030300F02880083AC0F0088051F8FB
:1003A000043B083A51F804CBA0E80810F5E7121D09
:1003B0005CBF51F8043B40F8043BAFF30080D20728
:1003C00024BF11F8013B11F801CB48BF11F8012BF4
:1003D00024BF00F8013B00F801CB48BF00F8012B17
:1003E000704770477047704710B5203AC0F00B80D7
:1003F000B1E81850A0E81850B1E81850A0E818501B
:10040000203ABFF4F5AF5FEA027C24BFB1E8185090
:10041000A0E8185044BF18C918C0BDE810405FEAF2
:10042000827C24BF51F8043B40F8043B08BF70476E
:10043000D20728BF31F8023B48BF11F8012B28BF73
:1004400020F8023B48BF00F8012B70470048704776
:100450000800002070477546FFF7F8FFAE4605001C
:100460006946534620F00700854618B020B5FFF7CF
:10047000E9FEBDE820404FF000064FF000074FF0C6
:1004800000084FF0000BAC46ACE8C009ACE8C0096E
:10049000ACE8C009ACE8C00921F007018D467047FF
:1004A00010B50446AFF300802046BDE81040FFF7CA
:1004B000B4BE000001491820ABBEFEE726000200D2
:1004C000FEE7000010B546F20404C4F20204D4F8BA
:1004D0008400000744BF20685FEA405008D4D4F885
:1004E0008400C00644BF20685FEA005008D410BDF5
:1004F000012001F053FA4FF48060A060EFE700BFE5
:10050000012001F08FFA4FF40060A06010BD0000E0
:1005100010B546F20404C4F20204D4F89C00C006EC
:1005200044BF20685FEA802000D410BD012001F0A4
:10053000E1FA4FF40010A06010BD000010B546F2C3
:100540000044C4F20204206C000744BF20685FEA44
:10055000C02007D4206CC00644BF20685FEA80201A
:1005600008D410BD002001F019FA4FF48010A060EB
:10057000F0E700BF002001F055FA4FF40010A06032
:1005800010BD000010B546F20444C4F20204D4F8D1
:10059000B400C00644BF20685FEA001000D410BD5C
:1005A000002001F0A7FA4FF00060A06010BD00002D
:1005B00070470000FEE70000F0B581B046F200464B
:1005C000C4F20206A6F580670446B8420D460DD077
:1005D000B4421FD041F6B630C0F60000A12100F0B1
:1005E0002DFD15F5803F00F0D5802EE0082D2CD391
:1005F00015F5803F22D143F61000C4F202000168D5
:1006000041F400110160016821F400110160002033
:1006100001B0F0BD082D18D315F5803F0ED143F67B
:100620001000C4F20200016841F480010160016819
:1006300021F480010160002001B0F0BD41F6B63028
:10064000C0F60000A12100F0F9FC41F67630C0F6BA
:100650000000405DBC42015921F00101015108BF79
:10066000002D3FD0B44208BF002D3FD0BC4208BF90
:10067000012D3FD0B44208BF012D3FD0BC4208BF7E
:10068000022D3FD0B44208BF022D3FD0BC4208BF6C
:10069000032D3FD0B44208BF032D3FD0BC4208BF5A
:1006A000042D3FD0B44208BF042D3FD0BC4208BF48
:1006B000052D3FD0B44208BF052D3FD0BC4208BF36
:1006C000062D3FD0B44208BF062D3FD084EA070272
:1006D00085F0070306F1B8011A4308BFA6F5527169
:1006E00036E000BFA6F57C7132E000BF06F11001D4
:1006F0002EE000BFA6F576712AE000BF06F12801C2
:1007000026E000BFA6F5707122E000BF06F14001AF
:100710001EE000BFA6F56A711AE000BF06F158019D
:1007200016E000BFA6F5647112E000BF06F170018B
:100730000EE000BFA6F55E710AE000BF06F1880179
:1007400006E000BFA6F5587102E000BF06F1A00167
:1007500000220A604A608A60CA600A6121224A61F6
:10076000215821F06061215075B1681E062811D80A
:10077000DFE800F004141A20262C32004FF47460D5
:10078000A060002001B0F0BD3F20A060002001B0BB
:10079000F0BD00BF012001B0F0BD00BF4FF47C10E0
:1007A000A060002001B0F0BD4FF07460A060002098
:1007B00001B0F0BD3F20E060002001B0F0BD00BFFF
:1007C0004FF47460E060002001B0F0BD4FF47C1085
:1007D000E060002001B0F0BD4FF07460E0600020E8
:1007E00001B0F0BD2DE9F04F81B0044600F13E406C
:1007F00000F1FF704FEAB02009280D4606D341F6FC
:100800007E30C0F60000CD2100F018FC28684FF6BD
:10081000FF710138884280F09B806868042880F06E
:10082000A2802869032806D341F67E30C0F6000076
:10083000D02100F003FC286890FAA0F1B1FA81F70A
:1008400030FA07F100F080804FF0010B23E000BF89
:10085000F0B2320A92FAA2F200284FF02000696941
:1008600008BFB2FA82F808BF242022584FEA880352
:100870000F269E40B243994011432150D5E9000113
:10088000226801FA0AF102EA0902114321600137E4
:1008900030FA07F158D00BFA07F110EA0106F6D04A
:1008A0006868013802282DD2A868042807D341F6C9
:1008B0007E30C0F60000E22100F0C0FBA86896FA86
:1008C000A6F2B2FA82F8A1684FEA480A032202FAB5
:1008D0000AF921EA090100FA0AF00843A060E86871
:1008E000022807D341F67E30C0F60000E82100F070
:1008F000A5FBE86861687043B1436FEA09090843E2
:1009000060600AE096FAA6F0B0FA80F84FEA480A6A
:10091000032000FA0AF06FEA000968682969E268B2
:1009200001FA0AF102EA090211430228E160A5D1A5
:10093000686910288CD341F67E30C0F60000F4219F
:1009400000F07CFB84E700BF002001B0BDE8F08F21
:1009500041F67E30C0F60000CE2100F06FFB6868E3
:100960000428FFF45EAF41F67E30C0F60000CF21D0
:1009700000F064FB28690328BFF456AF5BE7000072
:1009800044F6D351C1F26201A0FB01014FF0FF30E8
:1009900000EB91104EF21001CEF2000148600020F1
:1009A000886005200860704780B543F6040EC4F2E5
:1009B000020EDEF8042002F00C0342F20042082B83
:1009C000C0F2F40206D0042B22D141F20022C0F280
:1009D0007A021DE0DEF80030DEF800C05B0241F272
:1009E0000023C0F27A0358BF13460CF03F0CDEF828
:1009F0000020B3FBFCFCDEF80030C2F3881202FBDF
:100A00000CFCC3F30143022202EB4302BCFBF2F2F3
:100A10000260DEF8043041F65E31C3F30313C0F622
:100A20000001C95C41F66E3322FA01F14160DEF843
:100A30000420C0F60003C2F382229A5C21FA02F27B
:100A40008260DEF80420C2F342329A5CD140C16079
:100A500080BD000040F20001C2F200010860704752
:100A60002DE9F04184B044F6FF78C4F20008044652
:100A700040450D4612DC44F20040C4F200008442BE
:100A800025D044F60000C4F2000084421FD044F692
:100A90000040C4F20000844219D011E045F2000089
:100AA000C4F20000844212D041F20000C4F20100FE
:100AB00084420CD041F20040C4F20100844206D0CE
:100AC00041F6ED30C0F60000FF2100F0B7FA2868CB
:100AD0004BF62141C0F2BE0188422FD2686840F433
:100AE0008050B0F5805F37D1A8684FEA30300428D5
:100AF00007D341F6ED30C0F600004FF4817100F0ED
:100B00009DFAE868002818BFB0F5806F40F090802B
:100B100028694FEAB00004282CD268694FEA3020D7
:100B2000042834D2A86940F40040B0F5004F3CD10D
:100B3000E068800400F1CC8043E000BF41F6ED3076
:100B4000C0F600004FF4807100F078FA686840F455
:100B50008050B0F5805FC7D041F6ED30C0F60000A0
:100B600040F2011100F06AFAA8684FEA3030042818
:100B7000BFD2C6E741F6ED30C0F600004FF48271F7
:100B800000F05CFA68694FEA30200428CAD341F6C5
:100B9000ED30C0F6000040F2051100F04FFAA869F0
:100BA00040F40040B0F5004FC2D041F6ED30C0F641
:100BB00000004FF4837100F041FAE068800400F116
:100BC0008780E06849F20C6105F1040C88439CE8D9
:100BD0004E10AF690843184330433843E060206942
:100BE0006E4620F4405010432061606920F440704C
:100BF00040EA0C0060613046FFF7D6FE44454FF0F6
:100C0000010023DC44F20041C4F200018C4235D0E3
:100C100044F60001C4F200018C422FD044F600419A
:100C2000C4F200018C4229D004B0BDE8F08100BFBD
:100C3000B0F5C06F3FF46CAF41F6ED30C0F6000088
:100C400040F2031100F0FAF962E700BF45F200013B
:100C5000C4F200018C4211D041F20041C4F2010102
:100C60008C4205D041F20001C4F201018C42DBD17B
:100C700006F10C00006828B92AE000BF06F1080060
:100C8000006828B32B681BB3A9691922B1F5004F7E
:100C9000A0FB020120D15A00DB0FFFF7E5FA48F272
:100CA0001F51C5F2EB11A0FB01235A096FF063033A
:100CB00002FB0300322303EBC000A0FB01014FF451
:100CC000F87000EA111000EB0210C1F342111EE0AF
:100CD000012004B0BDE8F0819A009B0FFFF7C4FA31
:100CE00048F21F51C5F2EB11A0FB01235A096FF026
:100CF000630302FB0300322303EB0010A0FB01019E
:100D0000F02000EA511000EB0210C1F343114FF63E
:100D1000F07210400844A060A0680F2804D9002099
:100D200004B0BDE8F08100BF41F6ED30C0F6000030
:100D300040F2751100F082F9002004B0BDE8F081A6
:100D40002DE9F04188B0002643F63000CDE9056674
:100D5000CDE90366C4F202000168002441F01001ED
:100D600001600168C4F2020401F0100107910799C3
:100D7000016801AD41F00401016001684FF6FF78A0
:100D800001F00401079107990168032741F0200150
:100D90000160016801F0200107910799016841F0A5
:100DA00080010160016801F08001079107990168E5
:100DB00041F001010160016801F00101079107990B
:100DC000016841F002010160016801F00201079130
:100DD0000799016841F040010160016801F040019C
:100DE00007910799016841F00801016000682946F0
:100DF00000F008000790079804F58050CDF80480B3
:100E000002970596FFF7EEFC43F6FF70CDE9010768
:100E100004F5006029460596FFF7E4FC04F5A050B0
:100E20002946CDE901870596FFF7DCFC41F6F31072
:100E3000CDE90107204629460596FFF7D3FC04F5C6
:100E400080602946CDE901870596FFF7CBFC04F5C4
:100E5000C0502946CDE901870596FFF7C3FC04F58C
:100E600040602946CDE901870596FFF7BBFC08B035
:100E7000BDE8F081FEE70000FEE7000070470000DB
:100E8000704700007047000010B543F60000C4F240
:100E90000200D0F80014052262F30201C0F8001429
:100EA000D0F8001401F00701052911D0D0F8001482
:100EB00001F0070105290BD0D0F8001401F007015B
:100EC000052905D0D0F8001401F007010529E7D164
:100ED00047F20001C4F200010A6842F480420A604D
:100EE000016841F4803101600168890309D4016817
:100EF00089035CBF01685FEA813102D4016889031C
:100F0000F2D5016848F2000241F400210160416815
:100F1000CFF6BF72114045F20842C0F240021143C1
:100F20004160416821F440314160016841F08071C5
:100F300001600168890109D4016889015CBF016809
:100F40005FEA811102D401688901F2D58168052226
:100F500021F0F0018160816862F38C2181608168F9
:100F6000042262F34F3181608168022262F3010141
:100F7000816000BF816801F00C0108290ED08168F2
:100F800001F00C01082909D0816801F00C01082941
:100F900004D0816801F00C010829EBD147F6002448
:100FA000C0F603242046FFF7EBFC2046BDE81040C6
:100FB000FFF750BD4EF68850CEF20000016841F4B4
:100FC000700101607047000010B582B041F200046A
:100FD000C4F20104E068C00644BF20685FEAC06054
:100FE00002D402B010BD00BF002000F0F9FC206860
:100FF0000190019860680190019802B010BD000056
:1010000010B582B044F20044C4F20004E068C006A7
:1010100044BF20685FEAC06002D402B010BD00BFC8
:10102000012000F0DDFC20680190019860680190CB
:10103000019802B010BD0000FEE7000070470000FC
:1010400046F24440C4F20200006880B270470000DB
:1010500046F2B842C4F20202136823F0010313609F
:101060001368DB0709D01368DB071CBF13685FEA4E
:10107000C37302D01368DB07F2D1D2F800C0042397
:1010800063F35B6CC2F800C013684FF0010C6CF3A3
:101090008713136013686CF311431360136823F410
:1010A00090731360136823F400731360136843F4A0
:1010B00080631360136823F4C0531360136823F430
:1010C000C0431360536923F00403536141F20403E6
:1010D000C4F201039360D06050684FF6FF739843E9
:1010E000084350604FF0006042F8AC0C4FF0806055
:1010F00042F8AC0C4FF0007042F8AC0C4FF080702E
:1011000042F8AC0C4FF4800042F8AC0C106840F090
:1011100010001060106840F001001060704700007F
:101120002DE9F04F87B043F63002C4F20202136893
:10113000884643F0010313601368814603F00103FE
:101140000093009B136841F20C0A43F48003136080
:101150001368C4F2010A03F48001009100995169F7
:10116000002741F01000506150694FF0010B00F072
:101170001000009000984FF4C06000900220CDE96C
:101180000100072005904EF6F4705044694603971D
:10119000CDF810B0FFF726FB46F24045C4F2020539
:1011A000A5F140000221FFF707FA2968042060F347
:1011B0005B61296029684FF6FF7221F0C001296048
:1011C00029684FF080666BF311412960296841F46A
:1011D000807121F020012960296821F400712960C3
:1011E000296841F480612960296821F4C05129608F
:1011F000296821F4C0412960696921F0040169610D
:10120000AAF10801A960C5F80C906968914341EA08
:1012100008016960296841F008012960296841F0E6
:1012200010012960296841F0010129604EF60C5136
:10123000CEF200010A68C2F3022282F00703042BF7
:1012400028BF0346D51E4FF0FF3202FA03F32BEA04
:10125000030338BF3D46AB401D014EF22543CEF29D
:1012600000035D754EF20415CEF200052E600E6887
:10127000C6F3022686F00704042C28BF0446033E6A
:1012800002FA04F438BF3E462BEA0404B44002FAE2
:1012900006F62BEA06062643360183F8216040262F
:1012A0006E600968C1F3022181F00706042E38BF81
:1012B000304602FA00F003392BEA000038BF394605
:1012C000884000011870202028604FF4E130CDE9FB
:1012D00000070C20CDE90407AAF10C006946CDE90E
:1012E00002770697FFF7BCFBDAF8040020F4904081
:1012F000CAF80400DAF8080020F02A00CAF808004A
:10130000DAF8000040F40050CAF8000041F214007E
:10131000C4F2010050E8001F41F0400140E8001213
:101320005AB350E8001F41F0400140E8001222B3D8
:1013300050E8001F41F0400140E80012EAB150E8D7
:10134000001F41F0400140E80012002AE2D114E001
:1013500050E8001F41F0800140E80012AAB150E8B7
:10136000001F41F0800140E8001272B150E8001FF8
:1013700041F0800140E800123AB150E8001F41F00E
:10138000800140E80012002AE2D1DAF8000040F4BF
:101390000050CAF8000007B0BDE8F08F46F28C009C
:1013A000C4F20200006880B27047000046F2A0025A
:1013B000C4F20202136823F0010313601368DB0711
:1013C00009D01368DB071CBF13685FEAC37302D040
:1013D0001368DB07F2D1D2F800C0042363F35B6C1F
:1013E000C2F800C013684FF0010C6CF38713136050
:1013F00013686CF311431360136823F49073136044
:10140000136823F400731360136843F4806313605C
:10141000136823F4C0531360136823F4C0431360AC
:10142000536923F00403536144F20443C4F20003FC
:101430009360D06050684FF6FF7398430843506044
:101440004FF4001042F8940C4FF4801042F8940CC2
:101450004FF4002042F8940C4FF4802042F8940C92
:101460004FF4803042F8940C106840F01000106087
:10147000106840F001001060704700002DE9F04F47
:1014800087B043F63002C4F202021368894643F083
:10149000010313601368824603F001030093009B6D
:1014A000136844F20C4643F4001313601368C4F24B
:1014B000000603F400110091009911694FF00C0827
:1014C00041F4003010611069002700F400300090F2
:1014D00000980220CDE901000720059006F5DC30D8
:1014E0004FF0010B00F57D706946CDF80080039741
:1014F000CDF810B0FFF776F946F28805C4F2020580
:10150000A5F188000521FFF757F82968042060F34A
:101510005B61296029684FF6FF7221F0C0012960E4
:1015200029684FF0FF336BF311412960296841F4BA
:10153000807121F020012960296821F4007129605F
:10154000296841F480612960296821F4C05129602B
:10155000296821F4C0412960696921F004016961A9
:10156000A6F10801A960C5F80CA06968914341EA99
:1015700009016960296841F008012960296841F082
:1015800010012960296841F0010129604EF60C51D3
:10159000CEF200010A68C2F3022282F00705042D90
:1015A00028BF0546033A03FA05F538BF3A462BEA49
:1015B000050505FA02F215014EF20012CEF2000204
:1015C00082F810534FF4803515600D68C5F302257D
:1015D00085F00704042C28BF0446033D03FA04F4F5
:1015E00038BF3D462BEA0404AC4003FA05F52BEA6C
:1015F000050525434EF211442D01CEF2000425705D
:101600004FF4003515600968C1F3022181F0070528
:10161000042D38BF284603FA00F003392BEA0000F6
:1016200038BF3946884000016075402050604FF453
:10163000E130CDE90007A6F10C006946CDE902775B
:10164000CDE904870697FFF70BFA706820F4904005
:101650007060B06820F02A00B060306840F400503C
:10166000306044F21440C4F2000000BF50E8001F94
:1016700041F0400140E80012B2B150E8001F41F0D3
:10168000400140E800127AB150E8001F41F04001EB
:1016900040E8001242B150E8001F41F0400140E82C
:1016A0000012002AE2D100BF50E8001F41F0800183
:1016B00040E800125AB350E8001F41F0800140E8B2
:1016C000001222B350E8001F41F0800140E80012F0
:1016D000EAB150E8001F41F0800140E80012002A02
:1016E000E2D114E056E8000F40F0100046E8000197
:1016F000A9B156E8000F40F0100046E8000171B1B2
:1017000056E8000F40F0100046E8000139B156E8F5
:10171000000F40F0100046E800010029E2D13068D7
:1017200040F40050306007B0BDE8F08F531E1A42FD
:1017300016D0BAB1002300BF022A0CD3042A07D363
:10174000082A07D3120903F10403F5D1013B02E093
:10175000013300E0023301221F2B88BF013B9A4076
:10176000022A03D26FF00400704700BF531E80E8C6
:101770000E0000210161C16008467047F0B581B0DC
:101780000546C0682B69984204D10024204601B068
:10179000F0BD00BF0E46E86829691446401A904221
:1017A00002D8E8682969441AD5E901102A69274650
:1017B00002408A1A944202D32A6902408F1A296889
:1017C0002A691040014430463A46FEF7C5FD2968B3
:1017D000F019E21BFEF7C0FD28692044286120466D
:1017E00001B0F0BDF0B581B005464068EB682F69E7
:1017F0001446DA1B904203D10024204601B0F0BD0C
:101800000E46E9682A69411A1144A14203D8E968E1
:101810002A69411A8C18A968EA6827460A40821A80
:10182000944202D3EA680A40871A2868EA6811409D
:10183000084431463A46FEF78FFD2868F119E21B4D
:10184000FEF78AFDE8682044E860204601B0F0BD5C
:1018500084B043F64000C4F2020041684FF6FF0234
:1018600041F480414160416801F480410291029954
:10187000016841F080510160006800F080500390E1
:1018800003984EF60C50CEF200000168114041F072
:10189000052141F47A010160FFF7F6FAFFF750FAEB
:1018A000002000F017F8012000F014F80DF10704F3
:1018B00003E000BF002000F0CBF800202146012209
:1018C00000F024F90028F5D000202146012200F084
:1018D0002BF9EFE710B5012830D0002818BF10BD54
:1018E00040F26804C2F2000440F2D811C2F20001D2
:1018F00020464FF48062FFF719FF40F2D85104F1FF
:101900001400C2F200014FF48062FFF70FFF40F2B3
:10191000D80040F25812C2F20000C2F20002802148
:10192000C4E90A0200222186C4F83210802184F81A
:101930003620BDE81040FFF7F3BB00BF40F268045B
:10194000C2F2000440F6D82104F13800C2F20001CE
:101950004FF48062FFF7EAFE40F6D86104F14C00D4
:10196000C2F200014FF48062FFF7E0FE40F6D810AB
:1019700040F65822C2F20000C2F200028021C4E9FF
:1019800018020022A4F86810C4F86A10802184F8B4
:101990006E20BDE81040FFF771BD0000B0B540F209
:1019A0006802C0EBC001C2F2000202EBC104258E46
:1019B000012803D030B9FFF743FB04E0FFF7EEFC4A
:1019C00001E000BF0020A18EA26A08442D1A114434
:1019D000AAB22046FFF706FFA08E2844A086B0BD1D
:1019E000B0B540F26802C0EBC001C2F2000202EBE7
:1019F000C104258E012803D030B9FFF721FB04E094
:101A0000FFF7CCFC01E000BF0020A18EA26A0844D1
:101A10002D1A1144AAB22046FFF7E4FEA08E2844F6
:101A2000A086B0BD10B540F26801C0EBC000C2F2A4
:101A3000000101EBC004208EA18EA26A401A11445D
:101A400082B22046FFF7CEFE0020A08610BD000027
:101A500070B50446012813D0002C41D140F2680033
:101A6000C2F2000090F83600D0BB44F20040C4F24D
:101A7000000000F54C400068400631D50EE000BF84
:101A800040F26800C2F2000090F86E0040BB44F2E1
:101A90000040C4F200000068400621D540F2680111
:101AA000C4EBC400C2F2000101EBC006354655F894
:101AB0002C1FEA88A5F11800FFF760FE01040FD083
:101AC0000121012C86F836100CD0002C18BF70BDF7
:101AD0002A6881B21046BDE87040FFF7B9BA00BF6E
:101AE00070BD00BF2A6881B21046BDE87040FFF7A4
:101AF0005DBC000040F26801C0EBC000C2F2000112
:101B000001EBC000002180F83610704780B540F22C
:101B10006803C0EBC000C2F2000303EBC000FFF794
:101B20002DFE80B280BD000080B540F26803C0EB9E
:101B3000C000C2F2000303EBC0001430FFF752FEF6
:101B400080B280BDF1EE100A4FF6FF71C0F2C031D5
:101B500020EA010040F04070E1EE100A70470000FA
:101B6000000000000000010203040607080900004D
:101B7000000001020304102840587088A0B82E2EDF
:101B80002F447269766572732F53544D3332463445
:101B900078785F48414C5F4472697665722F537262
:101BA000632F73746D3332663478785F6C6C5F6763
:101BB00070696F2E63002E2E2F44726976657273E2
:101BC0002F53544D3332463478785F48414C5F444C
:101BD00072697665722F5372632F73746D33326638
:101BE0003478785F6C6C5F646D612E63002E2E2FED
:101BF000447269766572732F53544D33324634788C
:101C0000785F48414C5F4472697665722F53726306
:101C10002F73746D3332663478785F6C6C5F7573D4
:101C20006172742E63000000481C00080000002050
:101C300008000000C4010008501C00080800002033
:101C4000D0180000E00100080024F40000000000AB
:040000050800018965
:00000001FF
