:020000040800F2
:100000007806002029020008610300082503000883
:100010005D030008E5020008B504000800000000C8
:100020000000000000000000000000006D03000858
:1000300021030008000000006503000871030008A8
:10004000430200084302000843020008430200087C
:10005000430200084302000843020008430200086C
:10006000430200084302000843020008430200085C
:10007000430200084302000843020008430200084C
:10008000430200084302000843020008430200083C
:10009000430200084302000843020008430200082C
:1000A000430200084302000843020008430200081C
:1000B000430200084302000843020008430200080C
:1000C00043020008430200084302000869030008D5
:1000D00043020008430200084302000843020008EC
:1000E00043020008430200084302000843020008DC
:1000F00043020008430200084302000843020008CC
:1001000043020008430200084302000843020008BB
:1001100043020008430200084302000843020008AB
:10012000E902000843020008430200080503000832
:10013000430200084302000843020008430200088B
:10014000430200084302000843020008430200087B
:10015000430200084302000843020008430200086B
:10016000430200084302000843020008430200085B
:100170004302000843020008430200080000000098
:10018000430200084302000800F002F800F03CF8C7
:100190000AA090E8000C82448344AAF10107DA45E2
:1001A00001D100F031F8AFF2090EBAE80F0013F0F8
:1001B000010F18BFFB1A43F0010318474805000060
:1001C00068050000103A24BF78C878C1FAD85207F1
:1001D00024BF30C830C144BF04680C6070470000C1
:1001E0000023002400250026103A28BF78C1FBD840
:1001F000520728BF30C148BF0B6070471FB500F0E1
:1002000074FA1FBD10B510BD00F031F81146FFF7AC
:10021000F5FF00F051F900F04FF803B4FFF7F2FFDB
:1002200003BC00F057F80000094880470948004720
:10023000FEE7FEE7FEE7FEE7FEE7FEE7FEE7FEE796
:10024000FEE7FEE704480549054A064B70470000F3
:10025000A104000889010008780000207806002029
:10026000780200207802002070477047704775467A
:1002700000F02CF8AE4605006946534620F0070012
:10028000854618B020B5FFF7DDFFBDE820404FF0F0
:1002900000064FF000074FF000084FF0000BAC468F
:1002A000ACE8C009ACE8C009ACE8C009ACE8C009DA
:1002B00021F007018D46704710B50446AFF300806A
:1002C0002046BDE81040FFF7A8BF00000048704777
:1002D0000800002001491820ABBEFEE726000200FE
:1002E00070470000FEE7000046F20040C4F2020042
:1002F0000169C90642BF00685FEA806000F01AB970
:100300007047000046F20040C4F20200816DC90649
:1003100042BF00685FEA001000F048B97047000073
:1003200070470000FEE7000044F6D351C1F26201BD
:10033000A0FB01014FF0FF3000EB91104EF21001D5
:10034000CEF20001486000208860052008607047F8
:1003500040F20001C2F2000108607047FEE70000B1
:10036000FEE7000070470000704700007047000083
:100370007047000010B543F60000C4F20200D0F848
:100380000014052262F30201C0F80014D0F8001432
:1003900001F00701052911D0D0F8001401F0070180
:1003A00005290BD0D0F8001401F00701052905D06C
:1003B000D0F8001401F007010529E7D147F2000148
:1003C000C4F200010A6842F480420A60016841F404
:1003D000803101600168890309D4016889035CBF29
:1003E00001685FEA813102D401688903F2D50168AE
:1003F00048F2000241F4002101604168CFF6BF726B
:10040000114045F20842C0F2400211434160416888
:1004100021F440314160016841F080710160016860
:10042000890109D4016889015CBF01685FEA811113
:1004300002D401688901F2D58168052221F0F0011A
:100440008160816862F38C2181608168042262F39B
:100450004F3181608168022262F30101816000BF37
:10046000816801F00C0108290ED0816801F00C01AF
:10047000082909D0816801F00C01082904D081689D
:1004800001F00C010829EBD147F60024C0F6032443
:100490002046FFF749FF2046BDE81040FFF758BF50
:1004A0004EF68850CEF20000016841F47001016000
:1004B00070470000FEE7000082B043F64000C4F23F
:1004C000020041684FF6FF0241F4804141604168FB
:1004D0004FF0FF3301F4804100910099016841F031
:1004E00080510160006800F08050019001984EF644
:1004F0000C50CEF200000168114040F20032C0F210
:10050000FA52114301600168C1F3022181F0070230
:10051000042A28BF0422033903FA02F238BF00215B
:10052000D24302FA01F10901C175FFF723FF00BFB1
:10053000FEE7000081B046F21041C4F202010A68F1
:1005400043F2080022F01002C4F201000A6050F8E1
:10055000081C21F4444140F8081C0168090609D52B
:100560000168090644BF01685FEA016102D50168BC
:100570000906F2D4416802220091009900680090B7
:10058000009840F20040C4F20200016862F38B213F
:1005900001604FF48041816140F26800C2F20000C6
:1005A000032181700021417001B0704710B581B006
:1005B00046F25841C4F202010A6843F20400C4F250
:1005C000010022F010020A604268120609D5426852
:1005D000120644BF42685FEA026202D54268120610
:1005E000F2D482680092009A42680092009A40F227
:1005F0006802C2F200021378012B3FD1022340F2BD
:10060000184C9370C4F2020CD368B2F806E05CF8A0
:10061000182C012464F38B224CF8182C026822F069
:100620000102026041F83C3C51F8442C4FF6FF7344
:100630009A43724441F8442C027A202241F8502C0B
:1006400051F8482C42F0100241F8482C4FF08042FB
:10065000CCF8002051F8482C42F0010241F8482C17
:10066000016841F00101016050F8041C21F444418B
:1006700001F5806140F8041C01B010BD1378022B15
:1006800040F21843C4F2020301D1947844B14FF40C
:1006900080401860032090700020507001B010BDA1
:1006A00001249470D468B2F806C0026822F00202F5
:1006B0000260CC604A684FF6FF74A24362444A600D
:1006C0004FF0006241F8502C0A6842F010020A60B4
:1006D0004FF080421A600A6842F001020A60016825
:1006E00041F00201016001B010BDF1EE100A4FF6B9
:1006F000FF71C0F2C03120EA010040F04070E1EE2D
:10070000100A7047280700080000002008000000B9
:10071000C40100083007000808000020700600002F
:10072000E0010008000000000024F40000000000C8
:040000050800018965
:00000001FF
