:020000040800F2
:1000000038040020A1010008C1070008810300088E
:10001000BD0700087903000815090008000000006A
:10002000000000000000000000000000C9070008F8
:100030007D03000800000000C5070008CD07000888
:10004000BB010008BB010008BB010008BB010008A0
:10005000BB010008BB010008BB010008BB01000890
:10006000BB010008BB010008BB010008BB01000880
:10007000BB010008BB010008BB010008BB01000870
:10008000BB010008BB010008BB010008BB01000860
:10009000BB010008BB010008BB010008BB01000850
:1000A000BB010008BB010008BB010008BB01000840
:1000B000BB010008BB010008BB0100088503000864
:1000C000BB010008BB010008BB010008BB01000820
:1000D000BB01000811090008BB010008BB010008B2
:1000E000BB010008BB010008BB010008BB01000800
:1000F000BB010008BB010008BB010008BB010008F0
:10010000BB010008BB010008BB010008BB010008DF
:10011000BB010008BB010008BB010008BB010008CF
:10012000BB010008BB010008BB010008BB010008BF
:10013000BB010008BB010008BB010008BB010008AF
:10014000BB010008BB010008BB010008BB0100089F
:10015000BB010008BB010008BB010008BB0100088F
:10016000BB010008BB010008BB010008BB0100087F
:10017000BB010008BB010008BB0100080000000033
:10018000BB010008BB010008DFF810D000F0E2F866
:1001900000F0B0F800480047850A00083804002045
:1001A0000648804706480047FEE7FEE7FEE7FEE711
:1001B000FEE7FEE7FEE7FEE7FEE7FEE7FD080008D4
:1001C0008901000830B50B46014600202022012499
:1001D00009E021FA02F59D4205D303FA02F5491B15
:1001E00004FA02F52844151EA2F10102F1DC30BD2B
:1001F00070B500242546002801DA01244042002978
:1002000001DA01254942FFF7DDFFAC4200D0404250
:10021000002C00D0494270BD2DE9F05F054600205A
:1002200092469B4688460646814640241BE0284667
:1002300041464746224600F07CF853465A46C01ACB
:10024000914110D311461846224600F063F82D1A4A
:1002500067EB01084F4622460120002100F05AF8C2
:1002600017EB00094E41201EA4F10104DFDC4846D3
:1002700031462A464346BDE8F09F2DE9FF5F002145
:1002800082B08B468A468846029880B20090DDE9AB
:100290000210090C41EA00410014CDE90210DDE929
:1002A0000450002781463E463C46A9B200982D0CDA
:1002B00045EA094548434FEA19490021224600F022
:1002C00029F8C719714110340E46402CEDDB424627
:1002D000384600F01FF810EB0B0B41EB0A0108F158
:1002E00010088A46B8F1400FCEDB06B05846BDE88C
:1002F000F09F000070B5054C054D04E020460168F4
:1003000008448047241DAC42F8D170BD780C000829
:100310007C0C0008202A04DB203A00FA02F10020BD
:1003200070479140C2F1200320FA03F31943904033
:100330007047202A04DB203A21FA02F0002170479E
:1003400021FA02F3D040C2F120029140084319463D
:1003500070470000064C074D06E0E06840F00103DE
:1003600094E8070098471034AC42F6D3FFF710FF2B
:10037000580C0008780C0008FEE7000070470000E9
:10038000FEE70000704700002DE9F04F0E6896FA76
:10039000A6F2B2FA82F236FA02F365D04FF0010803
:1003A0004FF0030C0CE000BFD1E900630768AB40DD
:1003B00007EA0A073B430360013236FA02F353D0DF
:1003C00008FA02F316EA0304F6D0D1F804E0AEF11D
:1003D0000103022B1CD294FAA4F5B5FA85F6D0F8E5
:1003E00008907500D1E902AB0CFA05F329EA03097C
:1003F0000AFA05F747EA0907876047686FEA030AC0
:1004000027EA04090BFB04F747EA0907476008E0FD
:1004100094FAA4F3B3FA83F675000CFA05F36FEAC5
:10042000030A0F69C368AF4003EA0A033B43BEF106
:10043000020FC360B8D1E3B2240AD1F814E094FAF1
:10044000A4F4002B08BFB4FA84F64FF0200308BFD1
:100450002423C458B6000F27B740BC430EFA06F752
:100460002743C750A0E700BF0020BDE8F08F000081
:1004700044F6D351C1F26201A0FB01014FF0FF30FD
:1004800000EB91104EF21001CEF200014860002006
:10049000886005200860704780B543F6040EC4F2FA
:1004A000020EDEF8042002F00C0342F20042082B98
:1004B000C0F2F40206D0042B22D141F20022C0F295
:1004C0007A021DE0DEF80030DEF800C05B0241F287
:1004D0000023C0F27A0358BF13460CF03F0CDEF83D
:1004E0000020B3FBFCFCDEF80030C2F3881202FBF4
:1004F0000CFCC3F30143022202EB4302BCFBF2F209
:100500000260DEF8043040F63E41C3F30313C0F648
:100510000001C95C40F64E4322FA01F14160DEF869
:100520000420C0F60003C2F382229A5C21FA02F290
:100530008260DEF80420C2F342329A5CD140C1608E
:1005400080BD000040F20001C2F200010860704767
:1005500070B584B00446C068800400F17F80E06814
:100560000D4649F20C618843D5E9011E05F10C0CDA
:100570009CE848100843AA69184330431043E060E0
:1005800020696E4620F4405040EA0E002061606908
:1005900020F4407040EA0C0060613046FFF77CFFB9
:1005A00044F6FF70C4F2000084424FF0010013DCF7
:1005B00044F20041C4F200018C4225D044F600010F
:1005C000C4F200018C421FD044F60041C4F2000185
:1005D0008C4219D004B070BD45F20001C4F2000194
:1005E0008C4211D041F20041C4F201018C4205D08D
:1005F00041F20001C4F201018C42EBD106F10C0082
:10060000006828B92AE000BF06F10800006828B396
:100610002B681BB3A9691922B1F5004FA0FB020199
:1006200020D15A00DB0FFFF7F7FD48F21F51C5F24A
:10063000EB11A0FB01235A096FF0630302FB0300D7
:10064000322303EBC000A0FB01014FF4F87000EA75
:10065000111000EB0210C1F342111EE0012004B0A2
:1006600070BD00BF9A009B0FFFF7D6FD48F21F51E7
:10067000C5F2EB11A0FB01235A096FF0630302FBE3
:100680000300322303EB0010A0FB0101F02000EA7D
:10069000511000EB0210C1F343114FF6F0721040FD
:1006A0000844A060002004B070BD000081B043F693
:1006B0003000C4F20200016841F0040101600168E9
:1006C00001F0040100910099016841F0800101608E
:1006D000016801F0800100910099016841F0010179
:1006E0000160016801F0010100910099016841F089
:1006F00002010160006800F002000090009801B063
:1007000070470000B0B58EB043F63000C4F202006E
:10071000416941F20C0441F0100141614169C4F2A8
:10072000010401F01001079107990168002541F0CB
:1007300001010160006801A900F00100079007981D
:100740004FF4C06001900220029003200390072024
:1007500006904EF6F4702044CDE90455FFF714FEE0
:100760004EF60C50CEF2000000684EF22540CEF25C
:10077000000005704EF20410CEF20000202101604E
:100780004FF4E130CDE907050C20CDE90B05A4F1CC
:100790000C0007A9CDE909550D95FFF7D9FE606852
:1007A00020F490406060A06820F02A00A0602068DB
:1007B00040F4005020600EB0B0BD0000FEE7000025
:1007C000FEE70000704700007047000000F0E6B947
:1007D00010B543F60000C4F20200D0F80014052260
:1007E00062F30201C0F80014D0F8001401F0070110
:1007F000052911D0D0F8001401F0070105290BD00C
:10080000D0F8001401F00701052905D0D0F8001434
:1008100001F007010529E7D147F20001C4F2000108
:100820000A6842F480420A60016841F48031016044
:100830000168890309D4016889035CBF01685FEA24
:10084000813102D401688903F2D5016848F20002BF
:1008500041F4002101604168CFF6BF72114045F2BA
:100860000842C0F2400211434160416821F4403126
:100870004160016841F0807101600168890109D41B
:10088000016889015CBF01685FEA811102D40168D7
:100890008901F2D58168052221F0F001816081682B
:1008A00062F38C2181608168042262F34F318160A0
:1008B0008168022262F30101816000BF816801F05A
:1008C0000C0108290ED0816801F00C01082909D01B
:1008D000816801F00C01082904D0816801F00C0145
:1008E0000829EBD147F60024C0F603242046FFF781
:1008F000BFFD2046BDE81040FFF724BE4EF68850ED
:10090000CEF20000016841F4700101607047000000
:1009100070470000FEE7000080B5EFF3108072B66C
:1009200001214906564A116080F3108800F00CF945
:10093000B448002141600160B5480160B7480160DA
:1009400000F002F880BDC04670470000B0B586B028
:1009500043F63000C4F20200016840F2004441F066
:10096000400101600168C4F2020401F040010091FD
:10097000009901696D4641F400110161006901218E
:1009800000F40010009000980020019103210590D0
:10099000CDE9021004904FF4807000902046294663
:1009A000FFF7F2FC4FF40070009020462946FFF755
:1009B000EBFC06B0B0BD000070B50246C317964808
:1009C0000068C117FFF759FC0C4673490A685B2A97
:1009D00001DB096800E05A21CA170B1A1346A3412C
:1009E0000BDA461A944100F009F80D4636186541B5
:1009F00000F004F8801BA941FADB70BD10B5EFF3DD
:100A0000108072B67E490A684B68D21A1C4B1B686C
:100A10005B0106D50B689B1A102B02DB0968511885
:100A20004A1C78494B680C6880F31088D117A018CD
:100A3000594110BD80B5EFF3108172B6002807D17F
:100A40000D48002202600D4B436082600722026065
:100A5000012040060A4A106081F3108800F074F803
:100A60006848002141600160694801606B4801608D
:100A7000FFF76AFF80BDC04610E000E0FFFFFF0007
:100A800004ED00E082B043F64000C4F20200416889
:100A90004EF60C5541F4804141604168CEF20005AC
:100AA00001F480410091009901684FF0FF3241F05C
:100AB0008051016000684FF6FF0100F08050019006
:100AC000019828680026084040F20031C0F2FA512F
:100AD00008432860286840F21844C0F3022080F0E0
:100AE0000701042928BF0421033802FA01F138BFA5
:100AF0003046C94301FA00F00001C4F20204E8756F
:100B0000FFF766FE28684EF21000EE75CEF2000088
:100B1000016841F002010160FFF7C8FDFFF7F2FD37
:100B2000FFF714FF0120FFF785FF4FF480754FF0AA
:100B3000807600BF0520FFF73FFF05202560FFF707
:100B40003BFF2660F6E70000B0B510480468104986
:100B50002046FFF737FB304908607D20C100204662
:100B6000FFF730FB29490860EFF3108472B6FFF7F6
:100B700045FF084D69602860FFF740FF69682968F4
:100B8000401A0549086084F31088B0BD00000020B9
:100B900040420F00100000201800002070B51848D7
:100BA000006818494A68441C086800230019086056
:100BB00053414B60144D2868001928602868134E73
:100BC0003168FFF715FB316841432A68511A2960E3
:100BD0000F490A68101808600E4D2868001928602F
:100BE00028680D4C2168FFF703FB216841432A6800
:100BF000511A296009490A681018086070BDC0467A
:100C000014E000E020000020280000200400002064
:100C10002C000020340000200800002030000020BC
:100C200002E008C8121F08C1002AFAD170477047B5
:100C3000002001E001C1121F002AFBD17047000013
:100C4000000000000000010203040607080900007C
:100C50000000010203040000800C000800000020D6
:100C600010000000200C0008900C0008100000206C
:100C700028040000300C0008A1FCFFFF0000000069
:100C80000024F4000100000001000000000000004A
:040000050800018965
:00000001FF
