:020000040800F2
:10000000C016002029020008750A0008DD03000858
:10001000710A0008D5030008290C00080000000040
:100020000000000000000000000000007D0A000841
:10003000D903000800000000790A0008810A0008BE
:10004000430200084302000843020008430200087C
:10005000430200084302000843020008430200086C
:10006000430200084302000843020008430200085C
:10007000430200084302000843020008430200084C
:10008000430200084302000843020008430200083C
:10009000430200084302000843020008430200082C
:1000A000430200084302000843020008430200081C
:1000B000430200084302000843020008430200080C
:1000C00043020008430200084302000843020008FC
:1000D00043020008BD0B0008250C0008430200087D
:1000E00043020008430200084302000843020008DC
:1000F00043020008430200084302000843020008CC
:1001000043020008430200084302000843020008BB
:1001100043020008430200084302000843020008AB
:10012000430200084302000843020008430200089B
:10013000430200084302000843020008430200088B
:10014000430200084302000843020008430200087B
:10015000430200084302000843020008430200086B
:10016000430200084302000843020008430200085B
:100170004302000843020008430200080000000098
:10018000430200084302000800F002F800F03CF8C7
:100190000AA090E8000C82448344AAF10107DA45E2
:1001A00001D100F031F8AFF2090EBAE80F0013F0F8
:1001B000010F18BFFB1A43F0010318476811000034
:1001C00088110000103A24BF78C878C1FAD85207C5
:1001D00024BF30C830C144BF04680C6070470000C1
:1001E0000023002400250026103A28BF78C1FBD840
:1001F000520728BF30C148BF0B6070471FB501F0E0
:100200003EF81FBD10B510BD00F0AFF81146FFF766
:10021000F5FF00F0AFFE00F0CDF803B4FFF7F2FFFA
:1002200003BC00F0D1F800000948804709480047A6
:10023000FEE7FEE7FEE7FEE7FEE7FEE7FEE7FEE796
:10024000FEE7FEE704480549054A064B70470000F3
:10025000A90B000889010008C0100020C01600206A
:10026000C0120020C012002053EA020C00F0698086
:100270002DE9F04B4FF00006002B1FBFB3FA83F5BA
:1002800003FA05F424FA05F65E4012BF1643B2FAEB
:1002900082F502FA05F4C5F120051EBF22FA05FC1D
:1002A00044EA0C04203556EA044C4FEA144418BFC3
:1002B000641C4FF000084FF00009904271EB030CF2
:1002C00039D3002919BFB1FA81F701FA07F6B0FA5C
:1002D00080F700FA07F6C7F120071EBF20FA07FCD7
:1002E00046EA0C062037B6FBF4FCA7EB0507103FE7
:1002F00007F01F0BCBF120062CFA06F60CFA0BFBCD
:1003000044BFB3460026202FA4BF5E464FF0000B2B
:100310005BEA060C08BF4FF0010B19EB0B0948EB29
:100320000608ABFB027C06FB02CC0BFB03CCC01B1C
:1003300071EB0C01C1E70B46024641464846BDE859
:10034000F08B13B5084318BF4FF0FF300146AFF3F1
:100350000080BDE81C407047704770477047000040
:10036000004870470800002070477546FFF7F8FF07
:10037000AE4605006946534620F00700854618B092
:1003800020B5FFF75FFFBDE820404FF000064FF0BB
:1003900000074FF000084FF0000BAC46ACE8C00976
:1003A000ACE8C009ACE8C009ACE8C00921F007011D
:1003B0008D46704710B50446AFF300802046BDE877
:1003C0001040FFF72ABF000001491820ABBEFEE72E
:1003D00026000200FEE7000070470000FEE7000074
:1003E0002DE9F04F81B0044600F13E4000F1FF706E
:1003F0004FEAB02009280D4606D341F2B020C0F6DE
:100400000000CD2100F012FC28684FF6FF71013882
:10041000884280F09B806868042880F0A280286968
:10042000032806D341F2B020C0F60000D02100F02E
:10043000FDFB286890FAA0F1B1FA81F730FA07F1D4
:1004400000F080804FF0010B23E000BFF0B2320AD1
:1004500092FAA2F200284FF02000696908BFB2FAB0
:1004600082F808BF242022584FEA88030F269E40B6
:10047000B243994011432150D5E90001226801FAA5
:100480000AF102EA090211432160013730FA07F14B
:1004900058D00BFA07F110EA0106F6D06868013867
:1004A00002282DD2A868042807D341F2B020C0F654
:1004B0000000E22100F0BAFBA86896FAA6F2B2FAB0
:1004C00082F8A1684FEA480A032202FA0AF921EAEF
:1004D000090100FA0AF00843A060E868022807D37F
:1004E00041F2B020C0F60000E82100F09FFBE86870
:1004F00061687043B1436FEA0909084360600AE02C
:1005000096FAA6F0B0FA80F84FEA480A032000FAFB
:100510000AF06FEA000968682969E26801FA0AF1DD
:1005200002EA090211430228E160A5D16869102896
:100530008CD341F2B020C0F60000F42100F076FB2D
:1005400084E700BF002001B0BDE8F08F41F2B02089
:10055000C0F60000CE2100F069FB68680428FFF4B3
:100560005EAF41F2B020C0F60000CF2100F05EFB8C
:1005700028690328BFF456AF5BE7000044F6D35167
:10058000C1F26201A0FB01014FF0FF3000EB9110BE
:100590004EF21001CEF20001486000208860052074
:1005A0000860704780B543F6040EC4F2020EDEF810
:1005B000042002F00C0342F20042082BC0F2F402C5
:1005C00006D0042B22D141F20022C0F27A021DE0B3
:1005D000DEF80030DEF800C05B0241F20023C0F21A
:1005E0007A0358BF13460CF03F0CDEF80020B3FB33
:1005F000FCFCDEF80030C2F3881202FB0CFCC3F3F3
:100600000143022202EB4302BCFBF2F20260DEF87D
:10061000043041F29821C3F30313C0F60001C95C12
:1006200041F2A82322FA01F14160DEF80420C0F66D
:100630000003C2F382229A5C21FA02F28260DEF8A1
:100640000420C2F342329A5CD140C16080BD0000F8
:1006500040F20001C2F20001086070472DE9F0414C
:1006600084B044F6FF78C4F20008044640450D46C5
:1006700012DC44F20040C4F20000844225D044F66B
:100680000000C4F2000084421FD044F60040C4F2CF
:100690000000844219D011E045F20000C4F20000CD
:1006A000844212D041F20000C4F2010084420CD016
:1006B00041F20040C4F20100844206D041F2E82039
:1006C000C0F60000FF2100F0B1FA28684BF6214186
:1006D000C0F2BE0188422FD2686840F48050B0F565
:1006E000805F37D1A8684FEA3030042807D341F241
:1006F000E820C0F600004FF4817100F097FAE86836
:10070000002818BFB0F5806F40F0908028694FEA4C
:10071000B00004282CD268694FEA3020042834D273
:10072000A86940F40040B0F5004F3CD1E068800477
:1007300000F1CC8043E000BF41F2E820C0F60000A9
:100740004FF4807100F072FA686840F48050B0F5A0
:10075000805FC7D041F2E820C0F6000040F20111EE
:1007600000F064FAA8684FEA30300428BFD2C6E728
:1007700041F2E820C0F600004FF4827100F056FA12
:1007800068694FEA30200428CAD341F2E820C0F655
:10079000000040F2051100F049FAA86940F4004059
:1007A000B0F5004FC2D041F2E820C0F600004FF48F
:1007B000837100F03BFAE068800400F18780E06814
:1007C00049F20C6105F1040C88439CE84E10AF69B6
:1007D0000843184330433843E06020696E4620F4F4
:1007E000405010432061606920F4407040EA0C00E2
:1007F00060613046FFF7D6FE44454FF0010023DC30
:1008000044F20041C4F200018C4235D044F60001AC
:10081000C4F200018C422FD044F60041C4F2000122
:100820008C4229D004B0BDE8F08100BFB0F5C06FA4
:100830003FF46CAF41F2E820C0F6000040F2031133
:1008400000F0F4F962E700BF45F20001C4F20001D4
:100850008C4211D041F20041C4F201018C4205D01A
:1008600041F20001C4F201018C42DBD106F10C001F
:10087000006828B92AE000BF06F10800006828B324
:100880002B681BB3A9691922B1F5004FA0FB020127
:1008900020D15A00DB0FFFF7E7FC48F21F51C5F2E9
:1008A000EB11A0FB01235A096FF0630302FB030065
:1008B000322303EBC000A0FB01014FF4F87000EA03
:1008C000111000EB0210C1F342111EE0012004B030
:1008D000BDE8F0819A009B0FFFF7C6FC48F21F515C
:1008E000C5F2EB11A0FB01235A096FF0630302FB71
:1008F0000300322303EB0010A0FB0101F02000EA0B
:10090000511000EB0210C1F343114FF6F07210408A
:100910000844A060A0680F2804D9002004B0BDE8F6
:10092000F08100BF41F2E820C0F6000040F27511EE
:1009300000F07CF9002004B0BDE8F0812DE9F04121
:1009400088B0002643F63000CDE90566CDE90366A0
:10095000C4F202000168002441F010010160016846
:10096000C4F2020401F0100107910799016801AD7A
:1009700041F00401016001684FF6FF7801F00401C5
:10098000079107990168032741F020010160016880
:1009900001F0200107910799016841F08001016091
:1009A000016801F0800107910799016841F0010198
:1009B0000160016801F0010107910799016841F0A8
:1009C00002010160016801F00201079107990168C5
:1009D00041F040010160016801F040010791079971
:1009E000016841F0080101600068294600F0080034
:1009F0000790079804F58050CDF80480029705967B
:100A0000FFF7EEFC43F6FF70CDE9010704F5006047
:100A100029460596FFF7E4FC04F5A0502946CDE9E8
:100A200001870596FFF7DCFC41F6F310CDE90107DD
:100A3000204629460596FFF7D3FC04F58060294639
:100A4000CDE901870596FFF7CBFC04F5C050294698
:100A5000CDE901870596FFF7C3FC04F54060294600
:100A6000CDE901870596FFF7BBFC08B0BDE8F08132
:100A7000FEE70000FEE7000070470000704700003E
:100A80007047000010B543F60000C4F20200D0F831
:100A90000014052262F30201C0F80014D0F800141B
:100AA00001F00701052911D0D0F8001401F0070169
:100AB00005290BD0D0F8001401F00701052905D055
:100AC000D0F8001401F007010529E7D147F2000131
:100AD000C4F200010A6842F480420A60016841F4ED
:100AE000803101600168890309D4016889035CBF12
:100AF00001685FEA813102D401688903F2D5416857
:100B000048F20002CFF6BF72114045F20842C0F22F
:100B1000400211434160416821F440314160016865
:100B200041F0807101600168890109D4016889017F
:100B30005CBF01685FEA811102D401688901F2D5C6
:100B40008168052221F0F0018160816862F38C21C7
:100B500081608168042262F34F31816081680222E2
:100B600062F30101816000BF816801F00C01082976
:100B70000ED0816801F00C01082909D0816801F0CC
:100B80000C01082904D0816801F00C010829EBD17F
:100B900047F60024C0F603242046FFF7EFFC20466A
:100BA000BDE81040FFF754BD4EF68850CEF200006D
:100BB000016841F4700101607047000010B541F216
:100BC0000004C4F20104206800071DD4E068800618
:100BD00044BF20685FEA806018D4E068000644BF24
:100BE00020685FEA006019D4E068400646BF2068CC
:100BF0005FEA406010BD6FF0400100202160BDE859
:100C0000104000F071BA00BFFEE700BF6FF0200097
:100C10002060002000F05AFADFE700BF002000F05B
:100C200095FAE1E770470000FEE70000704700001A
:100C30002DE9F04387B043F63000C4F202000168AA
:100C400041F20C0641F0010101600168C4F20106A5
:100C500001F001010091009941696D4641F01001D8
:100C600041614069002700F01000009000980220C8
:100C7000CDE901004FF4806000904EF6F470341816
:100C80004FF001084FF00709204629460397CDF899
:100C90001080CDF81490FFF7A3FB4FF40070009084
:100CA00020462946CDF81490FFF79AFB4EF60C50DB
:100CB000CEF2000000684FF0FF32C0F3022080F057
:100CC0000701042928BF0421033802FA01F138BFC3
:100CD000384628EA010101FA00F04EF225410001F0
:100CE000CEF2000108704EF20410CEF20000202176
:100CF00001604FF4E130CDE900070C20CDE9040795
:100D0000A6F10C006946CDE902770697FFF7A6FC2D
:100D1000706820F490407060B06820F02A00B060E5
:100D200056E8000F40F0200046E80001A9B156E85F
:100D3000000F40F0200046E8000171B156E8000FB6
:100D400040F0200046E8000139B156E8000F40F0BD
:100D5000200046E800010029E2D1306840F400504C
:100D6000306007B0BDE8F0832DE9F04F87B043F65F
:100D70003000C4F20200016844F20C4641F0010167
:100D800001600168C4F2000601F0010100910099C0
:100D90000168E94641F04001016001684FF0020A34
:100DA00001F04001009100990169002741F40031F0
:100DB000016100694FF0010800F4003000900098D4
:100DC0000820009006F5DC3000F57D744FF0070B2D
:100DD00020464946CDE901AA0397CDF81080CDF809
:100DE00014B0FFF7FDFA0425204649460095CDF8DA
:100DF00014B0FFF7F5FA4FF48070009006F5E83074
:100E000000F57D7069460597CDE9018ACDE9037744
:100E1000FFF7E6FA4EF60C50CEF200000068C0F381
:100E2000022080F00701042938BF0D464FF0FF3142
:100E3000033801FA05F138BF384628EA010101FA02
:100E400000F04EF226410001CEF2000108704EF291
:100E50000410CEF20000402101604FF4E130CDE9F2
:100E600000070C20CDE90407A6F10C006946CDE986
:100E700002770697FFF7F2FB706820F490407060ED
:100E8000B06820F02A00B06056E8000F40F0200063
:100E900046E80001A9B156E8000F40F0200046E8FE
:100EA000000171B156E8000F40F0200046E8000153
:100EB00039B156E8000F40F0200046E80001002953
:100EC000E2D1306840F40050306007B0BDE8F08FE8
:100ED000531E1A4216D0BAB1002300BF022A0CD307
:100EE000042A07D3082A07D3120903F10403F5D112
:100EF000013B02E0013300E0023301221F2B88BFD7
:100F0000013B9A40022A03D26FF00400704700BFF1
:100F1000531E80E80E0000210161C1600846704741
:100F2000C26803699A4204BF00207047D0F800C02D
:100F3000836802691A401CF802200A7001690131B5
:100F40000161012070470000D0F804C0C368026945
:100F50009A1A944504BF00207047D0F800C08368F7
:100F6000C2681A400CF80210C1680131C16001204A
:100F70007047000084B043F64000C4F202004168AC
:100F80004FF6FF0241F4804141604168002301F4C3
:100F9000804102910299016841F08051016000682E
:100FA00000F08050039003984EF60C50CEF20000F3
:100FB0000168114041F0052141F47A0101600168A6
:100FC000C1F3022181F00702042A28BF0422033959
:100FD00038BF19464FF0FF3303FA02F2D24302FA48
:100FE00001F10901C175FFF74DFDFFF7A7FC0020D6
:100FF00000F012F8012000F00FF80DF1070400BF17
:101000000020214600F054F80028F9D000202146A5
:1010100000F0FAF8F4E7000010B5012826D0002807
:1010200018BF10BD44F2004040F26804C4F2000052
:10103000C2F2000400F54C41204640F8041B40F287
:10104000C001C2F200014FF48062FFF741FF40F29D
:10105000C04104F11800C2F200014FF48062FFF7B2
:1010600037FFBDE81040FFF7E3BD00BF40F2680462
:1010700044F20040C2F20004C4F2000040F6C00195
:10108000E06204F13000C2F200014FF48062FFF729
:101090001FFF40F6C04104F14400C2F200014FF4CA
:1010A0008062FFF715FFBDE81040FFF75DBE00004E
:1010B00080B540F26802C2F200022C2310FB03202C
:1010C0000430FFF72DFF80B280BD000040F26801C0
:1010D000C2F200012C2210FB021050F8041B4968D8
:1010E000C9B2FFF731BF0000012806D141F618014F
:1010F000C4F202014FF080720A602C21484340F292
:101100006801C2F2000108580C300FE050E8001FDF
:1011100021F0400140E80012002A08BF704750E863
:10112000001F21F0400140E8001272B150E8001F9A
:1011300021F0400140E800123AB150E8001F21F0D0
:10114000400140E80012002AE0D1704710B582B09B
:1011500040F26801C2F200012C2210FB0214606A06
:10116000A16A884244D120680C3000BF50E8001FBB
:1011700021F0800140E80012AAB150E8001F21F0E0
:10118000800140E8001272B150E8001F21F0800198
:1011900040E800123AB150E8001F21F0800140E819
:1011A0000012002AE2D120686FF0400140F80C1BC9
:1011B00050E8001F41F0400140E80012AAB150E899
:1011C000001F41F0400140E8001272B150E8001FDA
:1011D00041F0400140E800123AB150E8001F41F0F0
:1011E000400140E80012002AE2D102B010BD00BF69
:1011F00004F118000DF10701FFF792FE20689DF839
:101200000710416002B010BDB0B540F26805044659
:10121000C2F200052C2014FB005009781830FFF7AB
:1012200093FE010429D0012C06D141F61801C4F225
:1012300002014FF480720A602C21614369580C311D
:1012400051E8002F42F0800241E80023ABB151E8A1
:10125000002F42F0800241E8002373B151E8002FD3
:1012600042F0800241E800233BB151E8002F42F0F8
:10127000800241E80023002BE2D180B2B0BDF1EE44
:10128000100A4FF6FF71C0F2C03120EA010040F0B1
:101290004070E1EE100A70470000000000000000FE
:1012A000010203040607080900000000010203040C
:1012B0002E2E2F447269766572732F53544D33323C
:1012C000463478785F48414C5F4472697665722F86
:1012D0005372632F73746D3332663478785F6C6C3D
:1012E0005F6770696F2E63002E2E2F4472697665DA
:1012F00072732F53544D3332463478785F48414CE3
:101300005F4472697665722F5372632F73746D3305
:1013100032663478785F6C6C5F75736172742E63BB
:101320000000000048130008000000200800000032
:10133000C40100085013000808000020B81600007F
:10134000E0010008000000000024F400000000009C
:040000050800018965
:00000001FF
