:020000040800F2
:10000000600500209D010008CD0600088D02000853
:10001000C906000885020008210800080000000049
:10002000000000000000000000000000D5060008ED
:100030008902000800000000D1060008D906000867
:10004000B7010008B7010008B7010008B7010008B0
:10005000B7010008B7010008B7010008B7010008A0
:10006000B7010008B7010008B7010008B701000890
:10007000B7010008B7010008B7010008B701000880
:10008000B7010008B7010008B7010008B701000870
:10009000B7010008B7010008B7010008B701000860
:1000A000B7010008B7010008B7010008B701000850
:1000B000B7010008B7010008B70100089102000865
:1000C000B7010008B7010008B7010008B701000830
:1000D000B70100081D080008B7010008B7010008B3
:1000E000B7010008B7010008B7010008B701000810
:1000F000B7010008B7010008B7010008B701000800
:10010000B7010008B7010008B7010008B7010008EF
:10011000B7010008B7010008B7010008B7010008DF
:10012000B7010008B7010008B7010008B7010008CF
:10013000B7010008B7010008B7010008B7010008BF
:10014000B7010008B7010008B7010008B7010008AF
:10015000B7010008B7010008B7010008B70100089F
:10016000B7010008B7010008B7010008B70100088F
:10017000B7010008B7010008B7010008000000003F
:10018000B7010008B7010008DFF80CD000F068F8EC
:1001900000480047E10F000860050020064880473E
:1001A00006480047FEE7FEE7FEE7FEE7FEE7FEE75C
:1001B000FEE7FEE7FEE7FEE7090800088901000800
:1001C0002DE9F05F0546002092469B46884606468C
:1001D000814640241BE0284641464746224600F01F
:1001E0002FF853465A46C01A914110D3114618466B
:1001F000224600F016F82D1A67EB01084F462246FA
:100200000120002100F00DF817EB00094E41201EDF
:10021000A4F10104DFDC484631462A464346BDE8E6
:10022000F09F202A04DB203A00FA02F100207047F8
:100230009140C2F1200320FA03F319439040704724
:10024000202A04DB203A21FA02F00021704721FA2B
:1002500002F3D040C2F12002914008431946704792
:10026000064C074D06E0E06840F0010394E8070003
:1002700098471034AC42F6D3FFF78AFFEC1600081B
:100280000C170008FEE7000070470000FEE70000C2
:10029000704700002DE9F04F0E6896FAA6F2B2FA08
:1002A00082F236FA02F365D04FF001084FF0030CEA
:1002B0000CE000BFD1E900630768AB4007EA0A071A
:1002C0003B430360013236FA02F353D008FA02F3DB
:1002D00016EA0304F6D0D1F804E0AEF10103022BD4
:1002E0001CD294FAA4F5B5FA85F6D0F808907500FA
:1002F000D1E902AB0CFA05F329EA03090AFA05F77A
:1003000047EA0907876047686FEA030A27EA040992
:100310000BFB04F747EA0907476008E094FAA4F3E7
:10032000B3FA83F675000CFA05F36FEA030A0F6956
:10033000C368AF4003EA0A033B43BEF1020FC36048
:10034000B8D1E3B2240AD1F814E094FAA4F4002B53
:1003500008BFB4FA84F64FF0200308BF2423C45822
:10036000B6000F27B740BC430EFA06F72743C75025
:10037000A0E700BF0020BDE8F08F000044F6D35195
:10038000C1F26201A0FB01014FF0FF3000EB9110C0
:100390004EF21001CEF20001486000208860052076
:1003A0000860704780B543F6040EC4F2020EDEF812
:1003B000042002F00C0342F20042082BC0F2F402C7
:1003C00006D0042B22D141F20022C0F27A021DE0B5
:1003D000DEF80030DEF800C05B0241F20023C0F21C
:1003E0007A0358BF13460CF03F0CDEF80020B3FB35
:1003F000FCFCDEF80030C2F3881202FB0CFCC3F3F5
:100400000143022202EB4302BCFBF2F20260DEF87F
:10041000043041F2D261C3F30313C0F60001C95C9A
:1004200041F2E26322FA01F14160DEF80420C0F6F5
:100430000003C2F382229A5C21FA02F28260DEF8A3
:100440000420C2F342329A5CD140C16080BD0000FA
:1004500040F20001C2F200010860704770B584B03C
:100460000446C068800400F17F80E0680D4649F2D0
:100470000C618843D5E9011E05F10C0C9CE848107D
:100480000843AA69184330431043E06020696E4670
:1004900020F4405040EA0E002061606920F4407072
:1004A00040EA0C0060613046FFF77CFF44F6FF70C5
:1004B000C4F2000084424FF0010013DC44F200411A
:1004C000C4F200018C4225D044F60001C4F20001C0
:1004D0008C421FD044F60041C4F200018C4219D076
:1004E00004B070BD45F20001C4F200018C4211D08D
:1004F00041F20041C4F201018C4205D041F20001F9
:10050000C4F201018C42EBD106F10C00006828B95D
:100510002AE000BF06F10800006828B32B681BB36F
:10052000A9691922B1F5004FA0FB020120D15A00A0
:10053000DB0FFFF745FE48F21F51C5F2EB11A0FBA0
:1005400001235A096FF0630302FB0300322303EB1C
:10055000C000A0FB01014FF4F87000EA111000EB9D
:100560000210C1F342111EE0012004B070BD00BFB3
:100570009A009B0FFFF724FE48F21F51C5F2EB11C2
:10058000A0FB01235A096FF0630302FB030032232F
:1005900003EB0010A0FB0101F02000EA511000EB7A
:1005A0000210C1F343114FF6F07210400844A060EE
:1005B000002004B070BD000081B043F63000C4F2EA
:1005C0000200016841F004010160016801F00401CA
:1005D00000910099016841F080010160016801F01B
:1005E000800100910099016841F0010101600168FA
:1005F00001F0010100910099016841F002010160E0
:10060000006800F002000090009801B07047000000
:10061000B0B58EB043F63000C4F20200416941F239
:100620000C0441F0100141614169C4F2010401F080
:100630001001079107990168002541F0010101604F
:10064000006801A900F00100079007984FF4C0600E
:1006500001900220029003200390072006904EF69E
:10066000F4702044CDE90455FFF714FE4EF60C500B
:10067000CEF2000000684EF22540CEF20000057078
:100680004EF20410CEF20000202101604FF4E13060
:10069000CDE907050C20CDE90B05A4F10C0007A955
:1006A000CDE909550D95FFF7D9FE606820F490401B
:1006B0006060A06820F02A00A060206840F400502C
:1006C00020600EB0B0BD0000FEE70000FEE70000B5
:1006D000704700007047000000F0E0BF10B543F61F
:1006E0000000C4F20200D0F80014052262F30201F7
:1006F000C0F80014D0F8001401F00701052911D04A
:10070000D0F8001401F0070105290BD0D0F800142F
:1007100001F00701052905D0D0F8001401F0070108
:100720000529E7D147F20001C4F200010A6842F44A
:1007300080420A60016841F48031016001688903E8
:1007400009D4016889035CBF01685FEA813102D482
:1007500001688903F2D5016848F2000241F40021E2
:1007600001604168CFF6BF72114045F20842C0F205
:10077000400211434160416821F440314160016809
:1007800041F0807101600168890109D40168890123
:100790005CBF01685FEA811102D401688901F2D56A
:1007A0008168052221F0F0018160816862F38C216B
:1007B00081608168042262F34F3181608168022286
:1007C00062F30101816000BF816801F00C0108291A
:1007D0000ED0816801F00C01082909D0816801F070
:1007E0000C01082904D0816801F00C010829EBD123
:1007F00047F60024C0F603242046FFF7BFFD20463D
:10080000BDE81040FFF724BE4EF68850CEF200003F
:10081000016841F4700101607047000070470000FA
:10082000FEE7000080B582B001A800F09BF8B8B1E7
:100830009DF8040003280DD0012813D080B99DF83D
:10084000050002280CD111A20120012100F06EFB4D
:1008500002B080BD9DF80500022808BF00F066FACE
:1008600002B080BD9DF805000228F9D103A2022044
:10087000012100F05BFB02B080BD00BF544849532A
:1008800020495320412044454D4F210048454C4CC0
:100890004F20574F524C442100000000032884BFD2
:1008A00000207047DFE800F0021A0A1241F210003F
:1008B000C4F202000068C0F30010704741F210005B
:1008C000C4F202000068C0F3800070471020C4F238
:1008D0000200006800F00100704700BF41F2100004
:1008E000C4F202000068C0F3C0007047F0B587B0E2
:1008F00043F63000C4F202000168002441F0010117
:1009000001600168C4F2020401F001010191019942
:10091000016801AD41F0100101600068012600F09E
:1009200010000190019800200690049002901C2075
:100930000227019004F58050294605960397FFF79A
:10094000A9FC2046294605970196FFF7A3FC40F62F
:100950009D00C0F6000000F021F807B0F0BD0000D7
:1009600000F022B840F22801C2F2000191F82D20D7
:1009700091F82C309A4204BF0020704791F82C2047
:1009800002F00F0201EB42029289028091F82C00E2
:10099000013081F82C0001207047000040F228014E
:1009A000C2F20001486070472DE9F04F81B040F27B
:1009B0002804C2F200046168A66800200025884768
:1009C000B0FA80F001214009B143414009D12078BB
:1009D0000130C1B20229207004D3A06880F0010068
:1009E000A06025706168A568012001268847B0FADB
:1009F00080F005F00201400986EA5101414009D129
:100A000060780130C1B20229607005D3A06880F01F
:100A10000200A060002060706168A568022088471D
:100A2000B0FA80F005F004010122400982EA910148
:100A3000414009D1A0780130C1B20229A07005D38C
:100A4000A06880F00400A0600020A0706168A56824
:100A5000032088470138B0FA80F005F00801012230
:100A6000400982EAD101414009D1E0780130C1B2A8
:100A70000229E07005D3A06880F00800A060002083
:100A8000E070A06840F2040B00F00F004FF0000A85
:100A9000C2F2000B01224FF0030C4FF002094FF09D
:100AA000040E4FF005080026A0600BE094F82D001E
:100AB000013084F82D0000BF87F802A00636242EEE
:100AC00000F0C8800BEB0607A3687878FD78002853
:100AD00002FA05F012D03D7902FA05F10143C9434B
:100AE0000B420ED1A16801420BD0A068E84000F093
:100AF0000105B878032808D9DEE700BFC0430342E8
:100B0000F3D00225B8780328D6D8DFE800F0032117
:100B1000393F00BF012DD1D11BF8060094F82D10EC
:100B200094F82C30C91AC9B210290CD094F82D10A1
:100B300001F00F0104EB410108734A7394F82D0092
:100B4000013084F82D0087F805A0BA70B6E700BF21
:100B5000012D23D0022D1DD01BF8060094F82D1076
:100B600094F82C30C91AC9B21029A5D094F82D10C8
:100B700001F00F0104EB4101087381F80D9095E736
:100B8000002D08BF87F802A098E700BF012D29D0EB
:100B9000022D49D187F8029090E700BF78790130A3
:100BA000C1B264297871FFF489AF1BF8060094F88C
:100BB0002D1094F82C30C91AC9B210290DD094F810
:100BC0002D1001F00F0104EB4101087381F80DC0F5
:100BD00094F82D00013084F82D0087F805A087F8DF
:100BE00002C06BE778790130C1B205297871FFF452
:100BF00065AF1BF8060094F82D1094F82C30C91A34
:100C0000C9B210290DD094F82D1001F00F0104EB9A
:100C10004101087381F80DE094F82D00013084F84B
:100C20002D0087F805A049E71BF8060094F82D1061
:100C300094F82C30C91AC9B210293FF43DAF94F88A
:100C40002D1001F00F0104EB4101087381F80D80B4
:100C50002CE700BF01B0BDE8F08F000041F20401B5
:100C600040F20003CEF20001C2F200030A68D3F89A
:100C700000C044F6D353C1F26203ACFB033C4FEA1D
:100C80009C13584309E000BF0B689B1A834228BF9E
:100C900070470B689B1A834207D20B689B1A8342EA
:100CA00003D20B689B1A8342EED3704741F20401D2
:100CB00040F20003CEF20001C2F200030A68D3F84A
:100CC00000C04DF68363C4F21B33ACFB033C4FEA18
:100CD0009C43584309E000BF0B689B1A834228BF1E
:100CE00070470B689B1A834207D20B689B1A83429A
:100CF00003D20B689B1A8342EED370474EF6FC502A
:100D0000CEF200000168C90148BF7047016841F098
:100D10008071016041F20000CEF2000000214160CC
:100D2000016841F00101016070470000F0B583B037
:100D300040F26806C2F200063078062240F0040154
:100D40008DF803008DF804108DF8050040F01001B7
:100D500040F014008DF806108DF807008DF808108B
:100D60000DF103014E2000F05DFB0DF109040DF1C2
:100D70000B0500BF3078022240F0F20140F0F6008F
:100D80008DF809108DF80A004E20214600F04AFB2C
:100D90004E202946012200F0B5F99DF90B704E2036
:100DA0002146022200F03EFB4E202946012200F09F
:100DB000A9F9002FDED403B0F0BD000010B582B059
:100DC00040F26804C2F200042078062240F03001AC
:100DD00040F034008DF802108DF803008DF80410F7
:100DE0008DF805108DF806008DF807100DF1020141
:100DF0004E2000F017FB0120FFF730FF207840F075
:100E000030018DF8021040F034028DF8041040F0EB
:100E1000200140F024008DF803208DF805108DF896
:100E200006008DF807100DF102014E20062200F099
:100E3000F9FA0120FFF712FF0820207040F6084061
:100E4000C0F60800CDF8020040F60C00ADF8060030
:100E50000DF102014E20062200F0E4FA207840F065
:100E600020018DF8021040F024028DF8041060F08B
:100E70007F0140F084008DF803208DF805108DF877
:100E800006008DF807100DF102014E20062200F039
:100E9000C9FA2078062240F004018DF802008DF88E
:100EA00003108DF8040060F03F0140F0C4008DF89D
:100EB00005108DF806008DF807100DF102014E2087
:100EC00000F0B0FA2078062240F004018DF802000C
:100ED0008DF803108DF8040040F0600140F06400CC
:100EE0008DF805108DF806008DF807100DF1020140
:100EF0004E2000F097FA2078062240F004018DF889
:100F000002008DF803108DF8040040F0100140F04D
:100F100014008DF805108DF806008DF807100DF1FE
:100F200002014E2000F07EFA02B010BD70B584B010
:100F3000002A52D01446C21ED2B240F26805FE2AE0
:100F4000C2F2000522D3A1F11102D2B2F02A1DD3C0
:100F500001EB801029783F3020F00F0241EA0010A9
:100F60000A4340F004018DF8042042F004038DF898
:100F700006208DF807008DF808108DF8090001A9EA
:100F80004E2006228DF8053000F04CFA207820B370
:100F9000661E0DF10A0400BF297820F00F0241F00F
:100FA000010141EA00100A4340F004018DF80A20D3
:100FB00042F004038DF80C208DF80D008DF80E1012
:100FC0008DF80F004E20214606228DF80B3000F0E0
:100FD00029FAB07801360028DED104B070BD0000D7
:100FE00082B043F64000C4F2020041684EF60C5451
:100FF00041F4804141604168CEF2000401F4804137
:101000000091009901684FF0FF3241F0805101607A
:1010100000684FF6FF0100F08050019001982068B1
:101020000025084040F20031C0F2FA510843206028
:101030002068C0F3022080F00701042928BF0421A2
:10104000033802FA01F138BF2846C94301FA00F01B
:101050000001E075FFF742FB20684EF21000E575D5
:10106000CEF20000016841F002010160FFF7A4FA2E
:10107000FFF7CEFAFFF742FE00F016F8FFF736FC56
:101080000A20FFF7EBFDFFF799FE40F66110C0F66E
:101090000000002100220A2300F004FA00F09CFA6C
:1010A000FFF7C0FBFAE70000F0B587B043F6300069
:1010B000C4F20200016840F2004441F00201016004
:1010C0000068012100F002000190019800200690C4
:1010D000CDE904100320C4F2020401AD0291039093
:1010E0004FF48076204629460196FFF7D3F84FF457
:1010F0000077204629460197FFF7CCF8A761A66143
:1011000007B0F0BD2DE9F04740F218470646C4F29B
:1011100002074FF4807038604FF40070386001208F
:1011200015460C46FFF7C2FD4FF00070386046F0E0
:10113000010000F0CDF800281CBF0220BDE8F087B8
:10114000022D1ED36D424FF080764FF000784FF4A1
:1011500080794FF4007A00BF00F036F804F8010BF4
:1011600001203E60C7F80080FFF7A0FD0120C7F80E
:101170000090FFF79BFD0135681C3E60C7F800A09A
:10118000EAD100F021F820704FF080744FF4007520
:1011900001203C603D60FFF789FD4FF4807601201F
:1011A0003E60FFF783FD4FF000703C603D603C60A7
:1011B00038600120FFF77AFD01203E60FFF776FDE1
:1011C00000203D60BDE8F0872DE9F04381B040F29A
:1011D0001844C4F202044FF080790120C4F8009052
:1011E000FFF764FD4FF4807601202660FFF75EFD77
:1011F00054F8087C0120C4F80090FFF757FD012047
:101200002660FFF753FD54F8080C4FF0020808EA77
:101210001721C0F3402047180120C4F80090FFF7C1
:1012200045FD01202660FFF741FD54F8085C0120D0
:10123000C4F80090FFF73AFD01202660FFF736FD65
:1012400054F8081C08EA152040EA8700C1F3402141
:101250000D180120C4F80090FFF728FD012026603A
:10126000FFF724FD54F8080CC4F80090C0F34020A8
:1012700040EA45050120FFF719FD01202660FFF730
:1012800015FD54F8087C0120C4F80090FFF70EFD0E
:1012900001202660FFF70AFD54F8081C08EA172011
:1012A00040EA8500C1F340210D180120C4F80090E8
:1012B000FFF7FCFC01202660FFF7F8FC54F8080C4F
:1012C000C0F3402040EA4500C0B201B0BDE8F08361
:1012D0002DE9F041044640B240F21845C4F202053F
:1012E0004FF08077B0F1FF3F4FF400702F60C8BF20
:1012F0004FF00070286001204FF40078FFF7D6FC13
:101300004FF4807601202E60FFF7D0FC60064FF48A
:1013100000702F6058BF4FF0007028600120FFF769
:10132000C5FC01202E60FFF7C1FCA0064FF4007041
:101330002F6058BF4FF0007028600120FFF7B6FC07
:1013400001202E60FFF7B2FCE0064FF400702F6022
:1013500058BF4FF0007028600120FFF7A7FC012064
:101360002E60FFF7A3FC20074FF400702F6058BFDA
:101370004FF0007028600120FFF798FC01202E60DC
:10138000FFF794FC60074FF400702F6058BF4FF0D8
:10139000007028600120FFF789FC01202E60FFF714
:1013A00085FCA0074FF400702F6058BF4FF000700D
:1013B00028600120FFF77AFC01202E60FFF776FC01
:1013C000E0074FF400702F6008BF4FF000702860F6
:1013D0000120FFF76BFC01202E60FFF767FC012066
:1013E0002F60C5F80080FFF761FC01202E60FFF739
:1013F0005DFC55F8080C80055CBF0020BDE8F0815D
:101400004FF000702F60286001200124FFF74EFC90
:1014100001202E60FFF74AFC2046C5F80080BDE899
:10142000F0810000F0B581B040F218470646C4F2E2
:1014300002074FF4807038604FF40070386001206C
:1014400014460D46FFF732FC4FF00070386030460E
:10145000FFF73EFF10B1022001B0F0BD44B100BF64
:101460002878FFF735FFC8B9013C05F10105F7D130
:101470004FF0807038604FF0007038600120FFF747
:1014800015FC4FF4807038600120FFF70FFC4FF41B
:1014900000703860002001B0F0BD00BF012001B035
:1014A000F0BD0000B0B540F2700EC2F2000EDEF8E2
:1014B00000C0BCF1000F29D0F4465CF8184F34B3DB
:1014C000F4465CF8304F14B3F4465CF8484FF4B17E
:1014D000F4465CF8604FD4B1F4465CF8784FB4B190
:1014E000F4465CF8904F94B1F4465CF8A84F74B1A0
:1014F000F4465CF8C04F54B15EF8D84F002CF44667
:101500001CBF4FF0FF30B0BD01E000BFF44640F219
:10151000580EC2F2000ECCE90001714651F8080BDA
:10152000ACF80820ACF80A30D1E900138D1843F16B
:101530000002CCE9045288B3D0E90434EB1A72EB10
:10154000040309D240F2580EC2F2000ECCF80C008F
:101550000020CEF800C0B0BDC3683BB3D3E904415E
:101560002C1B72EB010125D3D86838B3D0E90414E1
:10157000691A72EB040125D3C368BBB1D3E9041423
:10158000691A72EB040115D3D868B8B1D0E9041414
:101590009E46691A72EB0401DED214E00020CCF8FA
:1015A0000C000020CEF800C0B0BD00BF8646002071
:1015B00009E000BF8646184605E000BF00209E46B1
:1015C00001E000BF9E460EF10C0ECCF80C0000208E
:1015D000CEF800C0B0BD0000F0B581B040F25807B1
:1015E000C2F200073D6807E000203B46E8601D604E
:1015F000D5E900108847ED68002D4DD0D7E90201EC
:10160000D5E90423801A71EB030045D36989E868A2
:1016100000293860ECD0D7E90223891843F1000291
:101620000028C5E90412DFD0D0E90434CB1A72EBEC
:1016300004033B46DAD3C36803B3D3E904460C1B67
:1016400072EB06061ED3D86800B3D0E904648E1B83
:1016500072EB04061BD3C36883B1D3E904648E1B09
:1016600072EB04060ED3D86880B1D0E904648E1BF7
:1016700072EB04061C46DED20AE000BF04460020DE
:1016800006E000BF0446184602E000BF00201C46EA
:1016900004F10C03AAE700BF01B0F0BD40F258000E
:1016A000C2F20000D0E90212013142F10002C0E9A9
:1016B0000212704702E008C8121F08C1002AFAD1BE
:1016C00070477047002001E001C1121F002AFBD1C2
:1016D000704700000000000000000102030406073C
:1016E00008090000000001020304000010170008B0
:1016F0000000002028000000B41600083817000879
:101700002800002038050000C41600080000000072
:101710000024F400000000000500010000010500A5
:10172000020000020500030000030500040100039D
:081730000000050100030200A6
:040000050800018965
:00000001FF
